{
  "contractName": "AttackDetector",
  "abi": [
    {
      "inputs": [
        {
          "internalType": "uint256",
          "name": "_txFreqThreshold",
          "type": "uint256"
        },
        {
          "internalType": "uint256",
          "name": "_gasThreshold",
          "type": "uint256"
        },
        {
          "internalType": "uint256",
          "name": "_failedTxThreshold",
          "type": "uint256"
        },
        {
          "internalType": "uint256",
          "name": "_ddosTxThreshold",
          "type": "uint256"
        },
        {
          "internalType": "uint256",
          "name": "_doubleSpendNonceThreshold",
          "type": "uint256"
        },
        {
          "internalType": "uint256",
          "name": "_sybilActivityThreshold",
          "type": "uint256"
        }
      ],
      "stateMutability": "nonpayable",
      "type": "constructor"
    },
    {
      "anonymous": false,
      "inputs": [
        {
          "indexed": false,
          "internalType": "address",
          "name": "suspiciousActor",
          "type": "address"
        },
        {
          "indexed": false,
          "internalType": "string",
          "name": "attackType",
          "type": "string"
        },
        {
          "indexed": false,
          "internalType": "uint256",
          "name": "timestamp",
          "type": "uint256"
        }
      ],
      "name": "PotentialAttackDetected",
      "type": "event"
    },
    {
      "anonymous": false,
      "inputs": [
        {
          "indexed": false,
          "internalType": "string",
          "name": "thresholdType",
          "type": "string"
        },
        {
          "indexed": false,
          "internalType": "uint256",
          "name": "oldValue",
          "type": "uint256"
        },
        {
          "indexed": false,
          "internalType": "uint256",
          "name": "newValue",
          "type": "uint256"
        }
      ],
      "name": "ThresholdUpdated",
      "type": "event"
    },
    {
      "inputs": [],
      "name": "ddosTransactionThreshold",
      "outputs": [
        {
          "internalType": "uint256",
          "name": "",
          "type": "uint256"
        }
      ],
      "stateMutability": "view",
      "type": "function",
      "constant": true
    },
    {
      "inputs": [],
      "name": "doubleSpendNonceThreshold",
      "outputs": [
        {
          "internalType": "uint256",
          "name": "",
          "type": "uint256"
        }
      ],
      "stateMutability": "view",
      "type": "function",
      "constant": true
    },
    {
      "inputs": [],
      "name": "failedTransactionThreshold",
      "outputs": [
        {
          "internalType": "uint256",
          "name": "",
          "type": "uint256"
        }
      ],
      "stateMutability": "view",
      "type": "function",
      "constant": true
    },
    {
      "inputs": [
        {
          "internalType": "address",
          "name": "",
          "type": "address"
        }
      ],
      "name": "failedTransactions",
      "outputs": [
        {
          "internalType": "uint256",
          "name": "",
          "type": "uint256"
        }
      ],
      "stateMutability": "view",
      "type": "function",
      "constant": true
    },
    {
      "inputs": [
        {
          "internalType": "address",
          "name": "",
          "type": "address"
        }
      ],
      "name": "gasUsage",
      "outputs": [
        {
          "internalType": "uint256",
          "name": "",
          "type": "uint256"
        }
      ],
      "stateMutability": "view",
      "type": "function",
      "constant": true
    },
    {
      "inputs": [],
      "name": "gasUsageThreshold",
      "outputs": [
        {
          "internalType": "uint256",
          "name": "",
          "type": "uint256"
        }
      ],
      "stateMutability": "view",
      "type": "function",
      "constant": true
    },
    {
      "inputs": [
        {
          "internalType": "address",
          "name": "",
          "type": "address"
        }
      ],
      "name": "lastNonce",
      "outputs": [
        {
          "internalType": "uint256",
          "name": "",
          "type": "uint256"
        }
      ],
      "stateMutability": "view",
      "type": "function",
      "constant": true
    },
    {
      "inputs": [
        {
          "internalType": "address",
          "name": "",
          "type": "address"
        }
      ],
      "name": "lastTransactionTime",
      "outputs": [
        {
          "internalType": "uint256",
          "name": "",
          "type": "uint256"
        }
      ],
      "stateMutability": "view",
      "type": "function",
      "constant": true
    },
    {
      "inputs": [],
      "name": "owner",
      "outputs": [
        {
          "internalType": "address",
          "name": "",
          "type": "address"
        }
      ],
      "stateMutability": "view",
      "type": "function",
      "constant": true
    },
    {
      "inputs": [],
      "name": "selfHealingManager",
      "outputs": [
        {
          "internalType": "address",
          "name": "",
          "type": "address"
        }
      ],
      "stateMutability": "view",
      "type": "function",
      "constant": true
    },
    {
      "inputs": [
        {
          "internalType": "address",
          "name": "",
          "type": "address"
        }
      ],
      "name": "suspiciousActivityCount",
      "outputs": [
        {
          "internalType": "uint256",
          "name": "",
          "type": "uint256"
        }
      ],
      "stateMutability": "view",
      "type": "function",
      "constant": true
    },
    {
      "inputs": [
        {
          "internalType": "address",
          "name": "",
          "type": "address"
        }
      ],
      "name": "sybilActivityCount",
      "outputs": [
        {
          "internalType": "uint256",
          "name": "",
          "type": "uint256"
        }
      ],
      "stateMutability": "view",
      "type": "function",
      "constant": true
    },
    {
      "inputs": [],
      "name": "sybilActivityThreshold",
      "outputs": [
        {
          "internalType": "uint256",
          "name": "",
          "type": "uint256"
        }
      ],
      "stateMutability": "view",
      "type": "function",
      "constant": true
    },
    {
      "inputs": [
        {
          "internalType": "address",
          "name": "",
          "type": "address"
        }
      ],
      "name": "transactionCountInWindow",
      "outputs": [
        {
          "internalType": "uint256",
          "name": "",
          "type": "uint256"
        }
      ],
      "stateMutability": "view",
      "type": "function",
      "constant": true
    },
    {
      "inputs": [
        {
          "internalType": "address",
          "name": "",
          "type": "address"
        }
      ],
      "name": "transactionFrequency",
      "outputs": [
        {
          "internalType": "uint256",
          "name": "",
          "type": "uint256"
        }
      ],
      "stateMutability": "view",
      "type": "function",
      "constant": true
    },
    {
      "inputs": [],
      "name": "transactionFrequencyThreshold",
      "outputs": [
        {
          "internalType": "uint256",
          "name": "",
          "type": "uint256"
        }
      ],
      "stateMutability": "view",
      "type": "function",
      "constant": true
    },
    {
      "inputs": [
        {
          "internalType": "address",
          "name": "_manager",
          "type": "address"
        }
      ],
      "name": "setSelfHealingManager",
      "outputs": [],
      "stateMutability": "nonpayable",
      "type": "function"
    },
    {
      "inputs": [
        {
          "internalType": "uint256",
          "name": "_txFreqThreshold",
          "type": "uint256"
        },
        {
          "internalType": "uint256",
          "name": "_gasThreshold",
          "type": "uint256"
        },
        {
          "internalType": "uint256",
          "name": "_failedTxThreshold",
          "type": "uint256"
        },
        {
          "internalType": "uint256",
          "name": "_ddosTxThreshold",
          "type": "uint256"
        },
        {
          "internalType": "uint256",
          "name": "_doubleSpendNonceThreshold",
          "type": "uint256"
        },
        {
          "internalType": "uint256",
          "name": "_sybilActivityThreshold",
          "type": "uint256"
        }
      ],
      "name": "updateThresholds",
      "outputs": [],
      "stateMutability": "nonpayable",
      "type": "function"
    },
    {
      "inputs": [
        {
          "internalType": "address",
          "name": "_actor",
          "type": "address"
        },
        {
          "internalType": "uint256",
          "name": "_gasUsed",
          "type": "uint256"
        },
        {
          "internalType": "bool",
          "name": "_success",
          "type": "bool"
        },
        {
          "internalType": "uint256",
          "name": "_nonce",
          "type": "uint256"
        }
      ],
      "name": "recordTransaction",
      "outputs": [],
      "stateMutability": "nonpayable",
      "type": "function"
    },
    {
      "inputs": [
        {
          "internalType": "address",
          "name": "_actor",
          "type": "address"
        },
        {
          "internalType": "bytes4",
          "name": "_functionSelector",
          "type": "bytes4"
        }
      ],
      "name": "detectReentrancyPattern",
      "outputs": [],
      "stateMutability": "nonpayable",
      "type": "function"
    },
    {
      "inputs": [
        {
          "internalType": "address",
          "name": "_actor",
          "type": "address"
        }
      ],
      "name": "detectDoSPattern",
      "outputs": [],
      "stateMutability": "nonpayable",
      "type": "function"
    },
    {
      "inputs": [
        {
          "internalType": "address",
          "name": "_actor",
          "type": "address"
        }
      ],
      "name": "resetSuspiciousActivity",
      "outputs": [],
      "stateMutability": "nonpayable",
      "type": "function"
    }
  ],
  "bytecode": "0x608060405234801561001057600080fd5b506040516113f73803806113f783398101604081905261002f91610061565b600080546001600160a01b031916331790556002959095556003939093556004919091556005556006556007556100ab565b60008060008060008060c0878903121561007a57600080fd5b865195506020870151945060408701519350606087015192506080870151915060a087015190509295509295509295565b61133d806100ba6000396000f3fe608060405234801561001057600080fd5b50600436106101425760003560e01c80638291cab3116100b8578063a945b6631161007c578063a945b663146102a6578063c0fd43b4146102af578063c1b6eb8b146102cf578063df53cc0e146102ef578063e75b207314610302578063f43106081461032257600080fd5b80638291cab3146102375780638859a5921461024a5780638da5cb5b1461026a57806393409d091461027d57806398cd63421461028657600080fd5b80633905175f1161010a5780633905175f146101cc57806341011644146101d5578063646d02ae146101e857806367fcb97e146101f157806368f5a6401461021157806381e3db6c1461022457600080fd5b806310babf90146101475780632c99571a1461017a57806335a48b01146101a557806335e285d7146101ae57806338060e80146101b7575b600080fd5b6101676101553660046110b5565b600a6020526000908152604090205481565b6040519081526020015b60405180910390f35b60015461018d906001600160a01b031681565b6040516001600160a01b039091168152602001610171565b61016760035481565b61016760045481565b6101ca6101c53660046110b5565b610342565b005b61016760055481565b6101ca6101e33660046110d7565b610413565b61016760065481565b6101676101ff3660046110b5565b600c6020526000908152604090205481565b6101ca61021f3660046110b5565b6104e3565b6101ca61023236600461111b565b6105a0565b6101ca61024536600461115e565b6107da565b6101676102583660046110b5565b600e6020526000908152604090205481565b60005461018d906001600160a01b031681565b61016760075481565b6101676102943660046110b5565b600b6020526000908152604090205481565b61016760025481565b6101676102bd3660046110b5565b600d6020526000908152604090205481565b6101676102dd3660046110b5565b600f6020526000908152604090205481565b6101ca6102fd3660046110b5565b610f3e565b6101676103103660046110b5565b60096020526000908152604090205481565b6101676103303660046110b5565b60086020526000908152604090205481565b6001546001600160a01b031633146103ba5760405162461bcd60e51b815260206004820152603060248201527f4f6e6c792073656c662d6865616c696e67206d616e616765722063616e20636160448201526f3636103a3434b990333ab731ba34b7b760811b60648201526084015b60405180910390fd5b6001600160a01b03166000908152600860209081526040808320839055600a8252808320839055600b8252808320839055600c8252808320839055600d8252808320839055600e8252808320839055600f909152812055565b604080516001600160a01b0384168152606060208201819052601b908201527f506f74656e7469616c205265656e7472616e63792041747461636b00000000006080820152428183015290516000805160206112c88339815191529181900360a00190a16001600160a01b038216600090815260086020526040812080549161049b836111bf565b91905055506104df826040518060400160405280601b81526020017f506f74656e7469616c205265656e7472616e63792041747461636b0000000000815250610f8a565b5050565b604080516001600160a01b038316815260606020820181905260149082015273506f74656e7469616c20446f532041747461636b60601b6080820152428183015290516000805160206112c88339815191529181900360a00190a16001600160a01b0381166000908152600860205260408120805491610562836111bf565b919050555061059d8160405180604001604052806014815260200173506f74656e7469616c20446f532041747461636b60601b815250610f8a565b50565b6000546001600160a01b031633146105ca5760405162461bcd60e51b81526004016103b1906111d8565b600254604080516060808252601590820152745472616e73616374696f6e204672657175656e637960581b6080820152602081019290925281018790526000805160206112e88339815191529060a00160405180910390a16003546040805160608082526009908201526847617320557361676560b81b6080820152602081019290925281018690526000805160206112e88339815191529060a00160405180910390a1600454604080516060808252601390820152724661696c6564205472616e73616374696f6e7360681b6080820152602081019290925281018590526000805160206112e88339815191529060a00160405180910390a16005546040805160608082526010908201526f222237a9902a3930b739b0b1ba34b7b760811b6080820152602081019290925281018490526000805160206112e88339815191529060a00160405180910390a160065460408051606080825260129082015271446f75626c65205370656e64204e6f6e636560701b6080820152602081019290925281018390526000805160206112e88339815191529060a00160405180910390a1600754604080516060808252600e908201526d537962696c20416374697669747960901b6080820152602081019290925281018290526000805160206112e88339815191529060a00160405180910390a1600295909555600393909355600491909155600555600655600755565b6001600160a01b038416600090815260096020526040902054429015610962576001600160a01b03851660009081526009602052604081205461081d9083611219565b9050600a811015610946576001600160a01b0386166000908152600a6020526040812080549161084c836111bf565b90915550506002546001600160a01b0387166000908152600a6020526040902054111561094157604080516001600160a01b0388168152606060208201819052601a908201527f48696768205472616e73616374696f6e204672657175656e637900000000000060808201529081018390526000805160206112c88339815191529060a00160405180910390a16001600160a01b03861660009081526008602052604081208054916108fd836111bf565b9190505550610941866040518060400160405280601a81526020017f48696768205472616e73616374696f6e204672657175656e6379000000000000815250610f8a565b610960565b6001600160a01b0386166000908152600a60205260408120555b505b6001600160a01b0385166000908152600b60205260408120805486929061098a908490611232565b90915550506003546001600160a01b0386166000908152600b60205260409020541115610a8557604080516001600160a01b0387168152606060208201819052601390820152724578636573736976652047617320557361676560681b60808201529081018290526000805160206112c88339815191529060a00160405180910390a16001600160a01b0385166000908152600860205260408120805491610a31836111bf565b9190505550610a6b85604051806040016040528060138152602001724578636573736976652047617320557361676560681b815250610f8a565b6001600160a01b0385166000908152600b60205260408120555b82610bbd576001600160a01b0385166000908152600c60205260408120805491610aae836111bf565b90915550506004546001600160a01b0386166000908152600c60205260409020541115610bbd57604080516001600160a01b0387168152606060208201819052601c908201527f4d756c7469706c65204661696c6564205472616e73616374696f6e730000000060808201529081018290526000805160206112c88339815191529060a00160405180910390a16001600160a01b0385166000908152600860205260408120805491610b5f836111bf565b9190505550610ba3856040518060400160405280601c81526020017f4d756c7469706c65204661696c6564205472616e73616374696f6e7300000000815250610f8a565b6001600160a01b0385166000908152600c60205260408120555b6001600160a01b0385166000908152600d602052604090205415801590610bfc57506001600160a01b0385166000908152600d60205260409020548211155b15610cc757604080516001600160a01b038716815260606020820181905260199082015278506f74656e7469616c20446f75626c65205370656e64696e6760381b60808201529081018290526000805160206112c88339815191529060a00160405180910390a16001600160a01b0385166000908152600860205260408120805491610c87836111bf565b9190505550610cc78560405180604001604052806019815260200178506f74656e7469616c20446f75626c65205370656e64696e6760381b815250610f8a565b6001600160a01b0385166000908152600d60209081526040808320859055600e9091528120805491610cf8836111bf565b90915550506005546001600160a01b0386166000908152600e60205260409020541115610df757604080516001600160a01b038716815260606020820181905260159082015274506f74656e7469616c2044446f532041747461636b60581b60808201529081018290526000805160206112c88339815191529060a00160405180910390a16001600160a01b0385166000908152600860205260408120805491610da1836111bf565b9190505550610ddd8560405180604001604052806015815260200174506f74656e7469616c2044446f532041747461636b60581b815250610f8a565b6001600160a01b0385166000908152600e60205260408120555b6001600160a01b0385166000908152600f60205260408120805491610e1b836111bf565b90915550506007546001600160a01b0386166000908152600f60205260409020541115610f1c57604080516001600160a01b038716815260606020820181905260169082015275506f74656e7469616c20537962696c2041747461636b60501b60808201529081018290526000805160206112c88339815191529060a00160405180910390a16001600160a01b0385166000908152600860205260408120805491610ec5836111bf565b9190505550610f028560405180604001604052806016815260200175506f74656e7469616c20537962696c2041747461636b60501b815250610f8a565b6001600160a01b0385166000908152600f60205260408120555b6001600160a01b03909416600090815260096020526040902093909355505050565b6000546001600160a01b03163314610f685760405162461bcd60e51b81526004016103b1906111d8565b600180546001600160a01b0319166001600160a01b0392909216919091179055565b6001546001600160a01b0316156104df576001546040516000916001600160a01b031690610fbe9085908590602401611269565b60408051601f198184030181529181526020820180516001600160e01b0316631489356160e01b17905251610ff391906112ab565b6000604051808303816000865af19150503d8060008114611030576040519150601f19603f3d011682016040523d82523d6000602084013e611035565b606091505b50509050806110945760405162461bcd60e51b815260206004820152602560248201527f4661696c656420746f206e6f746966792073656c662d6865616c696e67206d616044820152643730b3b2b960d91b60648201526084016103b1565b505050565b80356001600160a01b03811681146110b057600080fd5b919050565b6000602082840312156110c757600080fd5b6110d082611099565b9392505050565b600080604083850312156110ea57600080fd5b6110f383611099565b915060208301356001600160e01b03198116811461111057600080fd5b809150509250929050565b60008060008060008060c0878903121561113457600080fd5b505084359660208601359650604086013595606081013595506080810135945060a0013592509050565b6000806000806080858703121561117457600080fd5b61117d85611099565b9350602085013592506040850135801515811461119957600080fd5b9396929550929360600135925050565b634e487b7160e01b600052601160045260246000fd5b6000600182016111d1576111d16111a9565b5060010190565b60208082526021908201527f4f6e6c79206f776e65722063616e2063616c6c20746869732066756e6374696f6040820152603760f91b606082015260800190565b8181038181111561122c5761122c6111a9565b92915050565b8082018082111561122c5761122c6111a9565b60005b83811015611260578181015183820152602001611248565b50506000910152565b60018060a01b03831681526040602082015260008251806040840152611296816060850160208701611245565b601f01601f1916919091016060019392505050565b600082516112bd818460208701611245565b919091019291505056fe7005f329d2752599efe1d599194d3d3d7441634f4aa3e960e6019cc711004f8cb4fa87b548db8e1f413d37a7f7e6a36e70badcd19428dc15374cbd0f090b0bdca264697066735822122025bb37d2ae92d53656d9b0e99c33c516c5a0b6307f53f9f236e4d2a170a6793464736f6c63430008110033",
  "immutableReferences": {},
  "source": "\r\npragma solidity ^0.8.17;\r\n\r\n// File: contracts/AttackDetector.sol\r\ncontract AttackDetector {\r\n    address public owner;\r\n    address public selfHealingManager;\r\n\r\n    // Thresholds for different attack types\r\n    uint256 public transactionFrequencyThreshold;\r\n    uint256 public gasUsageThreshold;\r\n    uint256 public failedTransactionThreshold;\r\n    uint256 public ddosTransactionThreshold;\r\n    uint256 public doubleSpendNonceThreshold;\r\n    uint256 public sybilActivityThreshold;\r\n\r\n    // Attack tracking data\r\n    mapping(address => uint256) public suspiciousActivityCount;\r\n    mapping(address => uint256) public lastTransactionTime;\r\n    mapping(address => uint256) public transactionFrequency;\r\n    mapping(address => uint256) public gasUsage;\r\n    mapping(address => uint256) public failedTransactions;\r\n\r\n    // Additional mappings for new attack detection\r\n    mapping(address => uint256) public lastNonce;\r\n    mapping(address => uint256) public transactionCountInWindow;\r\n    mapping(address => uint256) public sybilActivityCount;\r\n\r\n    // Events for attack detection\r\n    event PotentialAttackDetected(\r\n        address suspiciousActor,\r\n        string attackType,\r\n        uint256 timestamp\r\n    );\r\n\r\n    event ThresholdUpdated(\r\n        string thresholdType,\r\n        uint256 oldValue,\r\n        uint256 newValue\r\n    );\r\n\r\n    modifier onlyOwner() {\r\n        require(msg.sender == owner, \"Only owner can call this function\");\r\n        _;\r\n    }\r\n\r\n    modifier onlySelfHealingManager() {\r\n        require(msg.sender == selfHealingManager, \"Only self-healing manager can call this function\");\r\n        _;\r\n    }\r\n\r\n    constructor(\r\n        uint256 _txFreqThreshold,\r\n        uint256 _gasThreshold,\r\n        uint256 _failedTxThreshold,\r\n        uint256 _ddosTxThreshold,\r\n        uint256 _doubleSpendNonceThreshold,\r\n        uint256 _sybilActivityThreshold\r\n    ) {\r\n        owner = msg.sender;\r\n        transactionFrequencyThreshold = _txFreqThreshold;\r\n        gasUsageThreshold = _gasThreshold;\r\n        failedTransactionThreshold = _failedTxThreshold;\r\n        ddosTransactionThreshold = _ddosTxThreshold;\r\n        doubleSpendNonceThreshold = _doubleSpendNonceThreshold;\r\n        sybilActivityThreshold = _sybilActivityThreshold;\r\n    }\r\n\r\n    function setSelfHealingManager(address _manager) external onlyOwner {\r\n        selfHealingManager = _manager;\r\n    }\r\n\r\n    // Update thresholds for attack detection\r\n    function updateThresholds(\r\n        uint256 _txFreqThreshold,\r\n        uint256 _gasThreshold,\r\n        uint256 _failedTxThreshold,\r\n        uint256 _ddosTxThreshold,\r\n        uint256 _doubleSpendNonceThreshold,\r\n        uint256 _sybilActivityThreshold\r\n    ) external onlyOwner {\r\n        emit ThresholdUpdated(\"Transaction Frequency\", transactionFrequencyThreshold, _txFreqThreshold);\r\n        emit ThresholdUpdated(\"Gas Usage\", gasUsageThreshold, _gasThreshold);\r\n        emit ThresholdUpdated(\"Failed Transactions\", failedTransactionThreshold, _failedTxThreshold);\r\n        emit ThresholdUpdated(\"DDoS Transaction\", ddosTransactionThreshold, _ddosTxThreshold);\r\n        emit ThresholdUpdated(\"Double Spend Nonce\", doubleSpendNonceThreshold, _doubleSpendNonceThreshold);\r\n        emit ThresholdUpdated(\"Sybil Activity\", sybilActivityThreshold, _sybilActivityThreshold);\r\n\r\n        transactionFrequencyThreshold = _txFreqThreshold;\r\n        gasUsageThreshold = _gasThreshold;\r\n        failedTransactionThreshold = _failedTxThreshold;\r\n        ddosTransactionThreshold = _ddosTxThreshold;\r\n        doubleSpendNonceThreshold = _doubleSpendNonceThreshold;\r\n        sybilActivityThreshold = _sybilActivityThreshold;\r\n    }\r\n\r\n    // Record transaction metrics for an address\r\n    function recordTransaction(address _actor, uint256 _gasUsed, bool _success, uint256 _nonce) external {\r\n        uint256 currentTime = block.timestamp;\r\n\r\n        // Calculate transaction frequency\r\n        if (lastTransactionTime[_actor] > 0) {\r\n            uint256 timeDiff = currentTime - lastTransactionTime[_actor];\r\n            if (timeDiff < 10) { // If less than 10 seconds between transactions\r\n                transactionFrequency[_actor]++;\r\n                // Check for frequency-based attacks\r\n                if (transactionFrequency[_actor] > transactionFrequencyThreshold) {\r\n                    emit PotentialAttackDetected(_actor, \"High Transaction Frequency\", currentTime);\r\n                    suspiciousActivityCount[_actor]++;\r\n                    notifySelfHealingManager(_actor, \"High Transaction Frequency\");\r\n                }\r\n            } else {\r\n                // Reset if enough time has passed\r\n                transactionFrequency[_actor] = 0;\r\n            }\r\n        }\r\n\r\n        // Record gas usage\r\n        gasUsage[_actor] += _gasUsed;\r\n        if (gasUsage[_actor] > gasUsageThreshold) {\r\n            emit PotentialAttackDetected(_actor, \"Excessive Gas Usage\", currentTime);\r\n            suspiciousActivityCount[_actor]++;\r\n            notifySelfHealingManager(_actor, \"Excessive Gas Usage\");\r\n            gasUsage[_actor] = 0; // Reset after notification\r\n        }\r\n\r\n        // Record failed transactions\r\n        if (!_success) {\r\n            failedTransactions[_actor]++;\r\n            if (failedTransactions[_actor] > failedTransactionThreshold) {\r\n                emit PotentialAttackDetected(_actor, \"Multiple Failed Transactions\", currentTime);\r\n                suspiciousActivityCount[_actor]++;\r\n                notifySelfHealingManager(_actor, \"Multiple Failed Transactions\");\r\n                failedTransactions[_actor] = 0; // Reset after notification\r\n            }\r\n        }\r\n\r\n        // Detect double spending by checking nonce reuse or out-of-order nonce\r\n        if (lastNonce[_actor] != 0 && _nonce <= lastNonce[_actor]) {\r\n            emit PotentialAttackDetected(_actor, \"Potential Double Spending\", currentTime);\r\n            suspiciousActivityCount[_actor]++;\r\n            notifySelfHealingManager(_actor, \"Potential Double Spending\");\r\n        }\r\n        lastNonce[_actor] = _nonce;\r\n\r\n        // Detect DDoS by counting transactions in a short window\r\n        transactionCountInWindow[_actor]++;\r\n        if (transactionCountInWindow[_actor] > ddosTransactionThreshold) {\r\n            emit PotentialAttackDetected(_actor, \"Potential DDoS Attack\", currentTime);\r\n            suspiciousActivityCount[_actor]++;\r\n            notifySelfHealingManager(_actor, \"Potential DDoS Attack\");\r\n            transactionCountInWindow[_actor] = 0; // Reset after notification\r\n        }\r\n\r\n        // Detect Sybil attack by counting suspicious activity\r\n        sybilActivityCount[_actor]++;\r\n        if (sybilActivityCount[_actor] > sybilActivityThreshold) {\r\n            emit PotentialAttackDetected(_actor, \"Potential Sybil Attack\", currentTime);\r\n            suspiciousActivityCount[_actor]++;\r\n            notifySelfHealingManager(_actor, \"Potential Sybil Attack\");\r\n            sybilActivityCount[_actor] = 0; // Reset after notification\r\n        }\r\n\r\n        lastTransactionTime[_actor] = currentTime;\r\n    }\r\n\r\n    // Detect reentrancy attack patterns\r\n    function detectReentrancyPattern(address _actor, bytes4 _functionSelector) external {\r\n        emit PotentialAttackDetected(_actor, \"Potential Reentrancy Attack\", block.timestamp);\r\n        suspiciousActivityCount[_actor]++;\r\n        notifySelfHealingManager(_actor, \"Potential Reentrancy Attack\");\r\n    }\r\n\r\n    // Detect DoS attack patterns\r\n    function detectDoSPattern(address _actor) external {\r\n        emit PotentialAttackDetected(_actor, \"Potential DoS Attack\", block.timestamp);\r\n        suspiciousActivityCount[_actor]++;\r\n        notifySelfHealingManager(_actor, \"Potential DoS Attack\");\r\n    }\r\n\r\n    // Notify the self-healing manager of an attack\r\n    function notifySelfHealingManager(address _attacker, string memory _attackType) internal {\r\n        if (selfHealingManager != address(0)) {\r\n            (bool success, ) = selfHealingManager.call(\r\n                abi.encodeWithSignature(\"handleAttackDetection(address,string)\", _attacker, _attackType)\r\n            );\r\n            require(success, \"Failed to notify self-healing manager\");\r\n        }\r\n    }\r\n\r\n    // Reset suspicious activity counter for an address\r\n    function resetSuspiciousActivity(address _actor) external onlySelfHealingManager {\r\n        suspiciousActivityCount[_actor] = 0;\r\n        transactionFrequency[_actor] = 0;\r\n        gasUsage[_actor] = 0;\r\n        failedTransactions[_actor] = 0;\r\n        lastNonce[_actor] = 0;\r\n        transactionCountInWindow[_actor] = 0;\r\n        sybilActivityCount[_actor] = 0;\r\n    }\r\n}\r\n",
  "sourcePath": "C:\\OneDrive\\Desktop\\self-healing-blockchain\\contracts\\AttackDetector.sol",
  "compiler": {
    "name": "solc",
    "version": "0.8.17+commit.8df45f5f.Emscripten.clang"
  },
  "schemaVersion": "3.4.16",
  "updatedAt": "2025-05-13T04:01:34.616Z",
  "networkType": "ethereum",
  "devdoc": {
    "kind": "dev",
    "methods": {},
    "version": 1
  },
  "userdoc": {
    "kind": "user",
    "methods": {},
    "version": 1
  }
}