{
  "contractName": "SecureToken",
  "abi": [
    {
      "inputs": [],
      "stateMutability": "nonpayable",
      "type": "constructor"
    },
    {
      "anonymous": false,
      "inputs": [
        {
          "indexed": true,
          "internalType": "address",
          "name": "owner",
          "type": "address"
        },
        {
          "indexed": true,
          "internalType": "address",
          "name": "spender",
          "type": "address"
        },
        {
          "indexed": false,
          "internalType": "uint256",
          "name": "value",
          "type": "uint256"
        }
      ],
      "name": "Approval",
      "type": "event"
    },
    {
      "anonymous": false,
      "inputs": [
        {
          "indexed": true,
          "internalType": "address",
          "name": "from",
          "type": "address"
        },
        {
          "indexed": true,
          "internalType": "address",
          "name": "to",
          "type": "address"
        },
        {
          "indexed": false,
          "internalType": "string",
          "name": "reason",
          "type": "string"
        }
      ],
      "name": "TransactionDenied",
      "type": "event"
    },
    {
      "anonymous": false,
      "inputs": [
        {
          "indexed": true,
          "internalType": "address",
          "name": "from",
          "type": "address"
        },
        {
          "indexed": true,
          "internalType": "address",
          "name": "to",
          "type": "address"
        },
        {
          "indexed": false,
          "internalType": "uint256",
          "name": "value",
          "type": "uint256"
        }
      ],
      "name": "Transfer",
      "type": "event"
    },
    {
      "inputs": [
        {
          "internalType": "address",
          "name": "",
          "type": "address"
        },
        {
          "internalType": "address",
          "name": "",
          "type": "address"
        }
      ],
      "name": "allowance",
      "outputs": [
        {
          "internalType": "uint256",
          "name": "",
          "type": "uint256"
        }
      ],
      "stateMutability": "view",
      "type": "function",
      "constant": true
    },
    {
      "inputs": [
        {
          "internalType": "address",
          "name": "",
          "type": "address"
        }
      ],
      "name": "balanceOf",
      "outputs": [
        {
          "internalType": "uint256",
          "name": "",
          "type": "uint256"
        }
      ],
      "stateMutability": "view",
      "type": "function",
      "constant": true
    },
    {
      "inputs": [],
      "name": "decimals",
      "outputs": [
        {
          "internalType": "uint8",
          "name": "",
          "type": "uint8"
        }
      ],
      "stateMutability": "view",
      "type": "function",
      "constant": true
    },
    {
      "inputs": [],
      "name": "name",
      "outputs": [
        {
          "internalType": "string",
          "name": "",
          "type": "string"
        }
      ],
      "stateMutability": "view",
      "type": "function",
      "constant": true
    },
    {
      "inputs": [],
      "name": "owner",
      "outputs": [
        {
          "internalType": "address",
          "name": "",
          "type": "address"
        }
      ],
      "stateMutability": "view",
      "type": "function",
      "constant": true
    },
    {
      "inputs": [],
      "name": "selfHealingManager",
      "outputs": [
        {
          "internalType": "address",
          "name": "",
          "type": "address"
        }
      ],
      "stateMutability": "view",
      "type": "function",
      "constant": true
    },
    {
      "inputs": [],
      "name": "symbol",
      "outputs": [
        {
          "internalType": "string",
          "name": "",
          "type": "string"
        }
      ],
      "stateMutability": "view",
      "type": "function",
      "constant": true
    },
    {
      "inputs": [],
      "name": "totalSupply",
      "outputs": [
        {
          "internalType": "uint256",
          "name": "",
          "type": "uint256"
        }
      ],
      "stateMutability": "view",
      "type": "function",
      "constant": true
    },
    {
      "inputs": [
        {
          "internalType": "address",
          "name": "_manager",
          "type": "address"
        }
      ],
      "name": "setSelfHealingManager",
      "outputs": [],
      "stateMutability": "nonpayable",
      "type": "function"
    },
    {
      "inputs": [
        {
          "internalType": "address",
          "name": "_to",
          "type": "address"
        },
        {
          "internalType": "uint256",
          "name": "_value",
          "type": "uint256"
        }
      ],
      "name": "transfer",
      "outputs": [
        {
          "internalType": "bool",
          "name": "success",
          "type": "bool"
        }
      ],
      "stateMutability": "nonpayable",
      "type": "function"
    },
    {
      "inputs": [
        {
          "internalType": "address",
          "name": "_spender",
          "type": "address"
        },
        {
          "internalType": "uint256",
          "name": "_value",
          "type": "uint256"
        }
      ],
      "name": "approve",
      "outputs": [
        {
          "internalType": "bool",
          "name": "success",
          "type": "bool"
        }
      ],
      "stateMutability": "nonpayable",
      "type": "function"
    },
    {
      "inputs": [
        {
          "internalType": "address",
          "name": "_from",
          "type": "address"
        },
        {
          "internalType": "address",
          "name": "_to",
          "type": "address"
        },
        {
          "internalType": "uint256",
          "name": "_value",
          "type": "uint256"
        }
      ],
      "name": "transferFrom",
      "outputs": [
        {
          "internalType": "bool",
          "name": "success",
          "type": "bool"
        }
      ],
      "stateMutability": "nonpayable",
      "type": "function"
    },
    {
      "inputs": [
        {
          "internalType": "address",
          "name": "_to",
          "type": "address"
        },
        {
          "internalType": "uint256",
          "name": "_value",
          "type": "uint256"
        }
      ],
      "name": "mint",
      "outputs": [],
      "stateMutability": "nonpayable",
      "type": "function"
    },
    {
      "inputs": [
        {
          "internalType": "uint256",
          "name": "_value",
          "type": "uint256"
        }
      ],
      "name": "burn",
      "outputs": [],
      "stateMutability": "nonpayable",
      "type": "function"
    }
  ],
  "bytecode": "0x60c0604052601960809081527f5365637572652053656c662d4865616c696e6720546f6b656e0000000000000060a0526000906200003e9082620001c9565b5060408051808201909152600481526314d4d21560e21b6020820152600190620000699082620001c9565b506002805460ff191660129081179091556200008790600a620003aa565b6200009690620f4240620003bf565b6003556005805460ff60a01b1916600160a01b179055348015620000b957600080fd5b50600480546001600160a01b031916339081179091556003546000828152600660205260408082208390555190917fddf252ad1be2c89b69c2b068fc378daa952ba7f163c4a11628f55a4df523b3ef916200011691815260200190565b60405180910390a3620003d9565b634e487b7160e01b600052604160045260246000fd5b600181811c908216806200014f57607f821691505b6020821081036200017057634e487b7160e01b600052602260045260246000fd5b50919050565b601f821115620001c457600081815260208120601f850160051c810160208610156200019f5750805b601f850160051c820191505b81811015620001c057828155600101620001ab565b5050505b505050565b81516001600160401b03811115620001e557620001e562000124565b620001fd81620001f684546200013a565b8462000176565b602080601f8311600181146200023557600084156200021c5750858301515b600019600386901b1c1916600185901b178555620001c0565b600085815260208120601f198616915b82811015620002665788860151825594840194600190910190840162000245565b5085821015620002855787850151600019600388901b60f8161c191681555b5050505050600190811b01905550565b634e487b7160e01b600052601160045260246000fd5b600181815b80851115620002ec578160001904821115620002d057620002d062000295565b80851615620002de57918102915b93841c9390800290620002b0565b509250929050565b6000826200030557506001620003a4565b816200031457506000620003a4565b81600181146200032d5760028114620003385762000358565b6001915050620003a4565b60ff8411156200034c576200034c62000295565b50506001821b620003a4565b5060208310610133831016604e8410600b84101617156200037d575081810a620003a4565b620003898383620002ab565b8060001904821115620003a057620003a062000295565b0290505b92915050565b6000620003b88383620002f4565b9392505050565b8082028115828204841417620003a457620003a462000295565b610f6380620003e96000396000f3fe608060405234801561001057600080fd5b50600436106100ea5760003560e01c806342966c681161008c57806395d89b411161006657806395d89b41146101ff578063a9059cbb14610207578063dd62ed3e1461021a578063df53cc0e1461024557600080fd5b806342966c68146101b957806370a08231146101cc5780638da5cb5b146101ec57600080fd5b806323b872dd116100c857806323b872dd146101475780632c99571a1461015a578063313ce5671461018557806340c10f19146101a457600080fd5b806306fdde03146100ef578063095ea7b31461010d57806318160ddd14610130575b600080fd5b6100f7610258565b6040516101049190610ca8565b60405180910390f35b61012061011b366004610d12565b6102e6565b6040519015158152602001610104565b61013960035481565b604051908152602001610104565b610120610155366004610d3c565b610353565b60055461016d906001600160a01b031681565b6040516001600160a01b039091168152602001610104565b6002546101929060ff1681565b60405160ff9091168152602001610104565b6101b76101b2366004610d12565b610775565b005b6101b76101c7366004610d78565b610863565b6101396101da366004610d91565b60066020526000908152604090205481565b60045461016d906001600160a01b031681565b6100f76108f8565b610120610215366004610d12565b610905565b610139610228366004610db3565b600760209081526000928352604080842090915290825290205481565b6101b7610253366004610d91565b610c5c565b6000805461026590610de6565b80601f016020809104026020016040519081016040528092919081815260200182805461029190610de6565b80156102de5780601f106102b3576101008083540402835291602001916102de565b820191906000526020600020905b8154815290600101906020018083116102c157829003601f168201915b505050505081565b3360008181526007602090815260408083206001600160a01b038716808552925280832085905551919290917f8c5be1e5ebec7d5bd14f71427d1e84f3dd0314c0f7b2291e5b200ac8c7c3b925906103419086815260200190565b60405180910390a35060015b92915050565b600554600090600160a01b900460ff166103b45760405162461bcd60e51b815260206004820152601f60248201527f5265656e7472616e637947756172643a207265656e7472616e742063616c6c0060448201526064015b60405180910390fd5b6005805460ff60a01b198116909155849084906001600160a01b0316156105905760055460405163fe575a8760e01b81526001600160a01b0384811660048301529091169063fe575a8790602401602060405180830381865afa15801561041f573d6000803e3d6000fd5b505050506040513d601f19601f820116820180604052508101906104439190610e20565b156104ae57806001600160a01b0316826001600160a01b0316600080516020610eee8339815191526040516104a19060208082526015908201527414d95b99195c881a5cc8189b1858dadb1a5cdd1959605a1b604082015260600190565b60405180910390a3610759565b6001600160a01b0381161580159061052f575060055460405163fe575a8760e01b81526001600160a01b0383811660048301529091169063fe575a8790602401602060405180830381865afa15801561050b573d6000803e3d6000fd5b505050506040513d601f19601f8201168201806040525081019061052f9190610e20565b1561059057806001600160a01b0316826001600160a01b0316600080516020610eee8339815191526040516104a190602080825260189082015277149958da5c1a595b9d081a5cc8189b1858dadb1a5cdd195960421b604082015260600190565b6001600160a01b0385166105e15760405162461bcd60e51b81526020600482015260186024820152775472616e7366657220746f207a65726f206164647265737360401b60448201526064016103ab565b6001600160a01b0386166000908152600660205260409020548411156106195760405162461bcd60e51b81526004016103ab90610e42565b6001600160a01b03861660009081526007602090815260408083203384529091529020548411156106855760405162461bcd60e51b8152602060048201526016602482015275496e73756666696369656e7420616c6c6f77616e636560501b60448201526064016103ab565b6001600160a01b038616600090815260066020526040812080548692906106ad908490610e86565b90915550506001600160a01b038516600090815260066020526040812080548692906106da908490610e99565b90915550506001600160a01b038616600090815260076020908152604080832033845290915281208054869290610712908490610e86565b92505081905550846001600160a01b0316866001600160a01b0316600080516020610f0e8339815191528660405161074c91815260200190565b60405180910390a3600192505b50506005805460ff60a01b1916600160a01b1790559392505050565b6004546001600160a01b0316331461079f5760405162461bcd60e51b81526004016103ab90610eac565b6001600160a01b0382166107ec5760405162461bcd60e51b81526020600482015260146024820152734d696e7420746f207a65726f206164647265737360601b60448201526064016103ab565b80600360008282546107fe9190610e99565b90915550506001600160a01b0382166000908152600660205260408120805483929061082b908490610e99565b90915550506040518181526001600160a01b03831690600090600080516020610f0e8339815191529060200160405180910390a35050565b336000908152600660205260409020548111156108925760405162461bcd60e51b81526004016103ab90610e42565b33600090815260066020526040812080548392906108b1908490610e86565b9250508190555080600360008282546108ca9190610e86565b90915550506040518181526000903390600080516020610f0e8339815191529060200160405180910390a350565b6001805461026590610de6565b600554600090600160a01b900460ff166109615760405162461bcd60e51b815260206004820152601f60248201527f5265656e7472616e637947756172643a207265656e7472616e742063616c6c0060448201526064016103ab565b6005805460ff60a01b198116909155339084906001600160a01b031615610b3d5760055460405163fe575a8760e01b81526001600160a01b0384811660048301529091169063fe575a8790602401602060405180830381865afa1580156109cc573d6000803e3d6000fd5b505050506040513d601f19601f820116820180604052508101906109f09190610e20565b15610a5b57806001600160a01b0316826001600160a01b0316600080516020610eee833981519152604051610a4e9060208082526015908201527414d95b99195c881a5cc8189b1858dadb1a5cdd1959605a1b604082015260600190565b60405180910390a3610c41565b6001600160a01b03811615801590610adc575060055460405163fe575a8760e01b81526001600160a01b0383811660048301529091169063fe575a8790602401602060405180830381865afa158015610ab8573d6000803e3d6000fd5b505050506040513d601f19601f82011682018060405250810190610adc9190610e20565b15610b3d57806001600160a01b0316826001600160a01b0316600080516020610eee833981519152604051610a4e90602080825260189082015277149958da5c1a595b9d081a5cc8189b1858dadb1a5cdd195960421b604082015260600190565b6001600160a01b038516610b8e5760405162461bcd60e51b81526020600482015260186024820152775472616e7366657220746f207a65726f206164647265737360401b60448201526064016103ab565b33600090815260066020526040902054841115610bbd5760405162461bcd60e51b81526004016103ab90610e42565b3360009081526006602052604081208054869290610bdc908490610e86565b90915550506001600160a01b03851660009081526006602052604081208054869290610c09908490610e99565b90915550506040518481526001600160a01b038616903390600080516020610f0e8339815191529060200160405180910390a3600192505b50506005805460ff60a01b1916600160a01b17905592915050565b6004546001600160a01b03163314610c865760405162461bcd60e51b81526004016103ab90610eac565b600580546001600160a01b0319166001600160a01b0392909216919091179055565b600060208083528351808285015260005b81811015610cd557858101830151858201604001528201610cb9565b506000604082860101526040601f19601f8301168501019250505092915050565b80356001600160a01b0381168114610d0d57600080fd5b919050565b60008060408385031215610d2557600080fd5b610d2e83610cf6565b946020939093013593505050565b600080600060608486031215610d5157600080fd5b610d5a84610cf6565b9250610d6860208501610cf6565b9150604084013590509250925092565b600060208284031215610d8a57600080fd5b5035919050565b600060208284031215610da357600080fd5b610dac82610cf6565b9392505050565b60008060408385031215610dc657600080fd5b610dcf83610cf6565b9150610ddd60208401610cf6565b90509250929050565b600181811c90821680610dfa57607f821691505b602082108103610e1a57634e487b7160e01b600052602260045260246000fd5b50919050565b600060208284031215610e3257600080fd5b81518015158114610dac57600080fd5b602080825260149082015273496e73756666696369656e742062616c616e636560601b604082015260600190565b634e487b7160e01b600052601160045260246000fd5b8181038181111561034d5761034d610e70565b8082018082111561034d5761034d610e70565b60208082526021908201527f4f6e6c79206f776e65722063616e2063616c6c20746869732066756e6374696f6040820152603760f91b60608201526080019056fe0765b3de30d546626a546f945a2bc647dfa38da27626279096fd12f41db7ee84ddf252ad1be2c89b69c2b068fc378daa952ba7f163c4a11628f55a4df523b3efa2646970667358221220fe3cf85cd334c5b157507fac00241e5ea1abf542b1ae41262e698e06cb4a57d264736f6c63430008110033",
  "immutableReferences": {},
  "source": "\r\n// File: contracts/SecureToken.sol\r\npragma solidity ^0.8.17;\r\n\r\ninterface ISelfHealingManager {\r\n    function isBlacklisted(address account) external view returns (bool);\r\n}\r\n\r\ncontract SecureToken {\r\n    string public name = \"Secure Self-Healing Token\";\r\n    string public symbol = \"SSHT\";\r\n    uint8 public decimals = 18;\r\n    uint256 public totalSupply = 1000000 * 10 ** uint256(decimals);\r\n    \r\n    address public owner;\r\n    address public selfHealingManager;\r\n    \r\n    // For reentrancy protection\r\n    bool private _notEntered = true;\r\n    \r\n    // Token balances\r\n    mapping(address => uint256) public balanceOf;\r\n    mapping(address => mapping(address => uint256)) public allowance;\r\n    \r\n    // Events\r\n    event Transfer(address indexed from, address indexed to, uint256 value);\r\n    event Approval(address indexed owner, address indexed spender, uint256 value);\r\n    event TransactionDenied(address indexed from, address indexed to, string reason);\r\n    \r\n    modifier onlyOwner() {\r\n        require(msg.sender == owner, \"Only owner can call this function\");\r\n        _;\r\n    }\r\n    \r\n    // Reentrancy guard\r\n    modifier nonReentrant() {\r\n        require(_notEntered, \"ReentrancyGuard: reentrant call\");\r\n        _notEntered = false;\r\n        _;\r\n        _notEntered = true;\r\n    }\r\n    \r\n    // Security check modifier\r\n    modifier securityCheck(address _from, address _to) {\r\n        if (selfHealingManager != address(0)) {\r\n            // Check if sender is blacklisted\r\n            if (ISelfHealingManager(selfHealingManager).isBlacklisted(_from)) {\r\n                emit TransactionDenied(_from, _to, \"Sender is blacklisted\");\r\n                return; // Skip the function body\r\n            }\r\n            \r\n            // Check if recipient is blacklisted\r\n            if (_to != address(0) && ISelfHealingManager(selfHealingManager).isBlacklisted(_to)) {\r\n                emit TransactionDenied(_from, _to, \"Recipient is blacklisted\");\r\n                return; // Skip the function body\r\n            }\r\n        }\r\n        _;\r\n    }\r\n    \r\n    constructor() {\r\n        owner = msg.sender;\r\n        balanceOf[msg.sender] = totalSupply;\r\n        emit Transfer(address(0), msg.sender, totalSupply);\r\n    }\r\n    \r\n    function setSelfHealingManager(address _manager) external onlyOwner {\r\n        selfHealingManager = _manager;\r\n    }\r\n    \r\n    function transfer(address _to, uint256 _value) external nonReentrant securityCheck(msg.sender, _to) returns (bool success) {\r\n        require(_to != address(0), \"Transfer to zero address\");\r\n        require(balanceOf[msg.sender] >= _value, \"Insufficient balance\");\r\n        \r\n        balanceOf[msg.sender] -= _value;\r\n        balanceOf[_to] += _value;\r\n        \r\n        emit Transfer(msg.sender, _to, _value);\r\n        return true;\r\n    }\r\n    \r\n    function approve(address _spender, uint256 _value) external returns (bool success) {\r\n        allowance[msg.sender][_spender] = _value;\r\n        emit Approval(msg.sender, _spender, _value);\r\n        return true;\r\n    }\r\n    \r\n    function transferFrom(\r\n        address _from, \r\n        address _to, \r\n        uint256 _value\r\n    ) external nonReentrant securityCheck(_from, _to) returns (bool success) {\r\n        require(_to != address(0), \"Transfer to zero address\");\r\n        require(balanceOf[_from] >= _value, \"Insufficient balance\");\r\n        require(allowance[_from][msg.sender] >= _value, \"Insufficient allowance\");\r\n        \r\n        balanceOf[_from] -= _value;\r\n        balanceOf[_to] += _value;\r\n        allowance[_from][msg.sender] -= _value;\r\n        \r\n        emit Transfer(_from, _to, _value);\r\n        return true;\r\n    }\r\n    \r\n    // Mint new tokens (for testing purposes)\r\n    function mint(address _to, uint256 _value) external onlyOwner {\r\n        require(_to != address(0), \"Mint to zero address\");\r\n        \r\n        totalSupply += _value;\r\n        balanceOf[_to] += _value;\r\n        \r\n        emit Transfer(address(0), _to, _value);\r\n    }\r\n    \r\n    // Burn tokens\r\n    function burn(uint256 _value) external {\r\n        require(balanceOf[msg.sender] >= _value, \"Insufficient balance\");\r\n        \r\n        balanceOf[msg.sender] -= _value;\r\n        totalSupply -= _value;\r\n        \r\n        emit Transfer(msg.sender, address(0), _value);\r\n    }\r\n}",
  "sourcePath": "C:\\OneDrive\\Desktop\\self-healing-blockchain\\contracts\\SecureToken.sol",
  "compiler": {
    "name": "solc",
    "version": "0.8.17+commit.8df45f5f.Emscripten.clang"
  },
  "schemaVersion": "3.4.16",
  "updatedAt": "2025-05-13T04:01:34.717Z",
  "networkType": "ethereum",
  "devdoc": {
    "kind": "dev",
    "methods": {},
    "version": 1
  },
  "userdoc": {
    "kind": "user",
    "methods": {},
    "version": 1
  }
}