{
  "contractName": "SelfHealingManager",
  "abi": [
    {
      "inputs": [],
      "stateMutability": "nonpayable",
      "type": "constructor"
    },
    {
      "anonymous": false,
      "inputs": [
        {
          "indexed": false,
          "internalType": "address",
          "name": "attacker",
          "type": "address"
        },
        {
          "indexed": false,
          "internalType": "string",
          "name": "attackType",
          "type": "string"
        },
        {
          "indexed": false,
          "internalType": "uint8",
          "name": "responseLevel",
          "type": "uint8"
        }
      ],
      "name": "AttackHandled",
      "type": "event"
    },
    {
      "anonymous": false,
      "inputs": [
        {
          "indexed": false,
          "internalType": "address",
          "name": "target",
          "type": "address"
        },
        {
          "indexed": false,
          "internalType": "bool",
          "name": "isBlacklisted",
          "type": "bool"
        }
      ],
      "name": "BlacklistUpdated",
      "type": "event"
    },
    {
      "anonymous": false,
      "inputs": [
        {
          "indexed": false,
          "internalType": "uint256",
          "name": "patchId",
          "type": "uint256"
        },
        {
          "indexed": false,
          "internalType": "string",
          "name": "attackType",
          "type": "string"
        }
      ],
      "name": "PatchApplied",
      "type": "event"
    },
    {
      "anonymous": false,
      "inputs": [
        {
          "indexed": false,
          "internalType": "uint256",
          "name": "patchId",
          "type": "uint256"
        }
      ],
      "name": "PatchReverted",
      "type": "event"
    },
    {
      "anonymous": false,
      "inputs": [
        {
          "indexed": false,
          "internalType": "enum SelfHealingManager.HealingState",
          "name": "previousState",
          "type": "uint8"
        },
        {
          "indexed": false,
          "internalType": "enum SelfHealingManager.HealingState",
          "name": "newState",
          "type": "uint8"
        }
      ],
      "name": "StateChanged",
      "type": "event"
    },
    {
      "inputs": [],
      "name": "attackDetector",
      "outputs": [
        {
          "internalType": "address",
          "name": "",
          "type": "address"
        }
      ],
      "stateMutability": "view",
      "type": "function",
      "constant": true
    },
    {
      "inputs": [
        {
          "internalType": "string",
          "name": "",
          "type": "string"
        }
      ],
      "name": "attackPatchId",
      "outputs": [
        {
          "internalType": "uint256",
          "name": "",
          "type": "uint256"
        }
      ],
      "stateMutability": "view",
      "type": "function",
      "constant": true
    },
    {
      "inputs": [
        {
          "internalType": "string",
          "name": "",
          "type": "string"
        }
      ],
      "name": "attackResponseLevel",
      "outputs": [
        {
          "internalType": "uint8",
          "name": "",
          "type": "uint8"
        }
      ],
      "stateMutability": "view",
      "type": "function",
      "constant": true
    },
    {
      "inputs": [],
      "name": "blacklistDuration",
      "outputs": [
        {
          "internalType": "uint256",
          "name": "",
          "type": "uint256"
        }
      ],
      "stateMutability": "view",
      "type": "function",
      "constant": true
    },
    {
      "inputs": [
        {
          "internalType": "address",
          "name": "",
          "type": "address"
        }
      ],
      "name": "blacklistTimestamp",
      "outputs": [
        {
          "internalType": "uint256",
          "name": "",
          "type": "uint256"
        }
      ],
      "stateMutability": "view",
      "type": "function",
      "constant": true
    },
    {
      "inputs": [
        {
          "internalType": "address",
          "name": "",
          "type": "address"
        }
      ],
      "name": "blacklistedAddresses",
      "outputs": [
        {
          "internalType": "bool",
          "name": "",
          "type": "bool"
        }
      ],
      "stateMutability": "view",
      "type": "function",
      "constant": true
    },
    {
      "inputs": [],
      "name": "currentState",
      "outputs": [
        {
          "internalType": "enum SelfHealingManager.HealingState",
          "name": "",
          "type": "uint8"
        }
      ],
      "stateMutability": "view",
      "type": "function",
      "constant": true
    },
    {
      "inputs": [],
      "name": "owner",
      "outputs": [
        {
          "internalType": "address",
          "name": "",
          "type": "address"
        }
      ],
      "stateMutability": "view",
      "type": "function",
      "constant": true
    },
    {
      "inputs": [],
      "name": "vulnerabilityPatches",
      "outputs": [
        {
          "internalType": "address",
          "name": "",
          "type": "address"
        }
      ],
      "stateMutability": "view",
      "type": "function",
      "constant": true
    },
    {
      "inputs": [
        {
          "internalType": "address",
          "name": "_detector",
          "type": "address"
        }
      ],
      "name": "setAttackDetector",
      "outputs": [],
      "stateMutability": "nonpayable",
      "type": "function"
    },
    {
      "inputs": [
        {
          "internalType": "address",
          "name": "_patches",
          "type": "address"
        }
      ],
      "name": "setVulnerabilityPatches",
      "outputs": [],
      "stateMutability": "nonpayable",
      "type": "function"
    },
    {
      "inputs": [
        {
          "internalType": "string",
          "name": "_attackType",
          "type": "string"
        },
        {
          "internalType": "uint8",
          "name": "_level",
          "type": "uint8"
        }
      ],
      "name": "updateAttackResponseLevel",
      "outputs": [],
      "stateMutability": "nonpayable",
      "type": "function"
    },
    {
      "inputs": [
        {
          "internalType": "string",
          "name": "_attackType",
          "type": "string"
        },
        {
          "internalType": "uint256",
          "name": "_patchId",
          "type": "uint256"
        }
      ],
      "name": "updateAttackPatchMapping",
      "outputs": [],
      "stateMutability": "nonpayable",
      "type": "function"
    },
    {
      "inputs": [
        {
          "internalType": "uint256",
          "name": "_duration",
          "type": "uint256"
        }
      ],
      "name": "setBlacklistDuration",
      "outputs": [],
      "stateMutability": "nonpayable",
      "type": "function"
    },
    {
      "inputs": [
        {
          "internalType": "address",
          "name": "_attacker",
          "type": "address"
        },
        {
          "internalType": "string",
          "name": "_attackType",
          "type": "string"
        }
      ],
      "name": "handleAttackDetection",
      "outputs": [],
      "stateMutability": "nonpayable",
      "type": "function"
    },
    {
      "inputs": [
        {
          "internalType": "address",
          "name": "_target",
          "type": "address"
        }
      ],
      "name": "isBlacklisted",
      "outputs": [
        {
          "internalType": "bool",
          "name": "",
          "type": "bool"
        }
      ],
      "stateMutability": "view",
      "type": "function",
      "constant": true
    },
    {
      "inputs": [
        {
          "internalType": "address",
          "name": "_target",
          "type": "address"
        }
      ],
      "name": "removeFromBlacklist",
      "outputs": [],
      "stateMutability": "nonpayable",
      "type": "function"
    },
    {
      "inputs": [
        {
          "internalType": "uint256",
          "name": "_patchId",
          "type": "uint256"
        }
      ],
      "name": "revertSecurityPatch",
      "outputs": [],
      "stateMutability": "nonpayable",
      "type": "function"
    },
    {
      "inputs": [
        {
          "internalType": "address",
          "name": "_attacker",
          "type": "address"
        }
      ],
      "name": "resetAttackerActivity",
      "outputs": [],
      "stateMutability": "nonpayable",
      "type": "function"
    },
    {
      "inputs": [],
      "name": "triggerRecoveryMode",
      "outputs": [],
      "stateMutability": "nonpayable",
      "type": "function"
    },
    {
      "inputs": [],
      "name": "exitRecoveryMode",
      "outputs": [],
      "stateMutability": "nonpayable",
      "type": "function"
    }
  ],
  "bytecode": "0x6080604052620151806005556006805460ff1916600117905534801561002457600080fd5b50600080546001600160a01b0319163317905560405160019060079061006d907f48696768205472616e73616374696f6e204672657175656e63790000000000008152601a0190565b908152604051908190036020018120805460ff9390931660ff19909316929092179091557f45786365737369766520476173205573616765000000000000000000000000008152600290600790601301908152604051908190036020018120805460ff9390931660ff19909316929092179091557f4d756c7469706c65204661696c6564205472616e73616374696f6e73000000008152600190600790601c01908152604051908190036020018120805460ff9390931660ff19909316929092179091557f506f74656e7469616c205265656e7472616e63792041747461636b00000000008152600390600790601b01908152604051908190036020018120805460ff9390931660ff19909316929092179091557f506f74656e7469616c20446f532041747461636b0000000000000000000000008152600390600790601401908152604051908190036020018120805460ff9390931660ff19909316929092179091557f506f74656e7469616c2044446f532041747461636b00000000000000000000008152600390600790601501908152604051908190036020018120805460ff9390931660ff19909316929092179091557f506f74656e7469616c20446f75626c65205370656e64696e67000000000000008152600390600790601901908152604051908190036020018120805460ff9390931660ff19909316929092179091557f506f74656e7469616c20537962696c2041747461636b000000000000000000008152600390600790601601908152604051908190036020018120805460ff9390931660ff19909316929092179091557f506f74656e7469616c205265656e7472616e63792041747461636b00000000008152600190600890601b01908152604051908190036020018120919091557f506f74656e7469616c20446f532041747461636b0000000000000000000000008152600290600890601401908152604051908190036020018120919091557f506f74656e7469616c2044446f532041747461636b00000000000000000000008152600490600890601501908152604051908190036020018120919091557f506f74656e7469616c20446f75626c65205370656e64696e67000000000000008152600590600890601901908152604051908190036020018120919091557f506f74656e7469616c20537962696c2041747461636b00000000000000000000815260069060089060160190815260405190819003602001902055610faa806104086000396000f3fe608060405234801561001057600080fd5b50600436106101375760003560e01c80638b180581116100b8578063b1e670311161007c578063b1e67031146102ab578063ba7c1b3a146102d6578063c2f25144146102e9578063d5749d42146102fc578063e912e15f1461032f578063fe575a871461034257600080fd5b80638b180581146102125780638da5cb5b146102255780638e5a27ec14610238578063ab6e03921461024b578063af3eaabd1461028b57600080fd5b8063394c9515116100ff578063394c9515146101a2578063537df3b6146101b557806354aa61d0146101c857806382b2ab0f146101d057806385a200ef146101e757600080fd5b80630c3f6acf1461013c578063148935611461015f5780631d73bfea1461017457806329264ac61461018757806338e5b7ae1461019a575b600080fd5b6006546101499060ff1681565b6040516101569190610b5f565b60405180910390f35b61017261016d366004610c32565b610355565b005b610172610182366004610cc9565b6104f4565b610172610195366004610d26565b610559565b610172610588565b6101726101b0366004610d26565b6105be565b6101726101c3366004610d3f565b6106aa565b610172610732565b6101d960055481565b604051908152602001610156565b6001546101fa906001600160a01b031681565b6040516001600160a01b039091168152602001610156565b610172610220366004610d61565b610766565b6000546101fa906001600160a01b031681565b610172610246366004610d3f565b6107b8565b610279610259366004610dad565b805160208183018101805160078252928201919093012091525460ff1681565b60405160ff9091168152602001610156565b6101d9610299366004610d3f565b60046020526000908152604090205481565b6101d96102b9366004610dad565b805160208183018101805160088252928201919093012091525481565b6101726102e4366004610d3f565b610804565b6101726102f7366004610d3f565b6108a0565b61031f61030a366004610d3f565b60036020526000908152604090205460ff1681565b6040519015158152602001610156565b6002546101fa906001600160a01b031681565b61031f610350366004610d3f565b6108ec565b6001546001600160a01b031633146103c85760405162461bcd60e51b815260206004820152602b60248201527f4f6e6c792061747461636b206465746563746f722063616e2063616c6c20746860448201526a34b990333ab731ba34b7b760a91b60648201526084015b60405180910390fd5b6103d26002610944565b60006007826040516103e49190610e0e565b9081526040519081900360200181205460ff1691507f41a9cf01c4f6e1b61fb7b9bac25e16c493404d982e00a793e33f838516ebf1709061042a90859085908590610e56565b60405180910390a160018160ff161061044657610446836109da565b60028160ff161061049f5760006008836040516104639190610e0e565b908152602001604051809103902054905060008111801561048e57506002546001600160a01b031615155b1561049d5761049d8184610a60565b505b60038160ff16106104e5576104b3836109da565b6005546104c1906003610ea3565b6104cb9042610eba565b6001600160a01b0384166000908152600460205260409020555b6104ef6001610944565b505050565b6000546001600160a01b0316331461051e5760405162461bcd60e51b81526004016103bf90610ecd565b8060078484604051610531929190610f0e565b908152604051908190036020019020805460ff9290921660ff19909216919091179055505050565b6000546001600160a01b031633146105835760405162461bcd60e51b81526004016103bf90610ecd565b600555565b6000546001600160a01b031633146105b25760405162461bcd60e51b81526004016103bf90610ecd565b6105bc6001610944565b565b6000546001600160a01b031633146105e85760405162461bcd60e51b81526004016103bf90610ecd565b6002546001600160a01b0316156106a75760025460405163e0bf92f960e01b8152600481018390526000916001600160a01b03169063e0bf92f9906024016020604051808303816000875af1158015610645573d6000803e3d6000fd5b505050506040513d601f19601f820116820180604052508101906106699190610f1e565b905080156106a5576040518281527fd075aea267157ba235690e6efa19c7d1d5e3e1f572d09cbfbefd20b654cd19639060200160405180910390a15b505b50565b6000546001600160a01b031633146106d45760405162461bcd60e51b81526004016103bf90610ecd565b6001600160a01b0381166000818152600360209081526040808320805460ff191690558051938452908301919091527f6a12b3df6cba4203bd7fd06b816789f87de8c594299aed5717ae070fac781bac91015b60405180910390a150565b6000546001600160a01b0316331461075c5760405162461bcd60e51b81526004016103bf90610ecd565b6105bc6003610944565b6000546001600160a01b031633146107905760405162461bcd60e51b81526004016103bf90610ecd565b80600884846040516107a3929190610f0e565b90815260405190819003602001902055505050565b6000546001600160a01b031633146107e25760405162461bcd60e51b81526004016103bf90610ecd565b600280546001600160a01b0319166001600160a01b0392909216919091179055565b6000546001600160a01b0316331461082e5760405162461bcd60e51b81526004016103bf90610ecd565b6001546001600160a01b0316156106a75760015460405162700c1d60e71b81526001600160a01b038381166004830152909116906338060e8090602401600060405180830381600087803b15801561088557600080fd5b505af1158015610899573d6000803e3d6000fd5b5050505050565b6000546001600160a01b031633146108ca5760405162461bcd60e51b81526004016103bf90610ecd565b600180546001600160a01b0319166001600160a01b0392909216919091179055565b6001600160a01b03811660009081526003602052604081205460ff1661091457506000919050565b6001600160a01b03821660009081526004602052604090205442111561093c57506000919050565b506001919050565b80600381111561095657610956610b27565b60065460ff16600381111561096d5761096d610b27565b146106a7576006546040517fe8a97ea87e4388fa22d496b95a8ed5ced6717f49790318de2b928aaf37a021d8916109ab9160ff909116908490610f40565b60405180910390a16006805482919060ff191660018360038111156109d2576109d2610b27565b021790555050565b6001600160a01b0381166000908152600360205260409020805460ff19166001179055600554610a0a9042610eba565b6001600160a01b0382166000818152600460209081526040918290209390935580519182526001928201929092527f6a12b3df6cba4203bd7fd06b816789f87de8c594299aed5717ae070fac781bac9101610727565b6002546001600160a01b0316156106a55760025460405163133a8a2160e31b8152600481018490526000916001600160a01b0316906399d45108906024016020604051808303816000875af1158015610abd573d6000803e3d6000fd5b505050506040513d601f19601f82011682018060405250810190610ae19190610f1e565b905080156104ef577fded5e0837626bf3ca62b173bb1c649465c14eee8b9a90b065bb9057ac98c7e418383604051610b1a929190610f5b565b60405180910390a1505050565b634e487b7160e01b600052602160045260246000fd5b60048110610b5b57634e487b7160e01b600052602160045260246000fd5b9052565b60208101610b6d8284610b3d565b92915050565b80356001600160a01b0381168114610b8a57600080fd5b919050565b634e487b7160e01b600052604160045260246000fd5b600082601f830112610bb657600080fd5b813567ffffffffffffffff80821115610bd157610bd1610b8f565b604051601f8301601f19908116603f01168101908282118183101715610bf957610bf9610b8f565b81604052838152866020858801011115610c1257600080fd5b836020870160208301376000602085830101528094505050505092915050565b60008060408385031215610c4557600080fd5b610c4e83610b73565b9150602083013567ffffffffffffffff811115610c6a57600080fd5b610c7685828601610ba5565b9150509250929050565b60008083601f840112610c9257600080fd5b50813567ffffffffffffffff811115610caa57600080fd5b602083019150836020828501011115610cc257600080fd5b9250929050565b600080600060408486031215610cde57600080fd5b833567ffffffffffffffff811115610cf557600080fd5b610d0186828701610c80565b909450925050602084013560ff81168114610d1b57600080fd5b809150509250925092565b600060208284031215610d3857600080fd5b5035919050565b600060208284031215610d5157600080fd5b610d5a82610b73565b9392505050565b600080600060408486031215610d7657600080fd5b833567ffffffffffffffff811115610d8d57600080fd5b610d9986828701610c80565b909790965060209590950135949350505050565b600060208284031215610dbf57600080fd5b813567ffffffffffffffff811115610dd657600080fd5b610de284828501610ba5565b949350505050565b60005b83811015610e05578181015183820152602001610ded565b50506000910152565b60008251610e20818460208701610dea565b9190910192915050565b60008151808452610e42816020860160208601610dea565b601f01601f19169290920160200192915050565b6001600160a01b0384168152606060208201819052600090610e7a90830185610e2a565b905060ff83166040830152949350505050565b634e487b7160e01b600052601160045260246000fd5b8082028115828204841417610b6d57610b6d610e8d565b80820180821115610b6d57610b6d610e8d565b60208082526021908201527f4f6e6c79206f776e65722063616e2063616c6c20746869732066756e6374696f6040820152603760f91b606082015260800190565b8183823760009101908152919050565b600060208284031215610f3057600080fd5b81518015158114610d5a57600080fd5b60408101610f4e8285610b3d565b610d5a6020830184610b3d565b828152604060208201526000610de26040830184610e2a56fea26469706673582212203d3158bea183b80d6c420c72803888dbfb867e176ee2e7b374f6c02a6b05b99364736f6c63430008110033",
  "immutableReferences": {},
  "source": "\r\n// File: contracts/SelfHealingManager.sol\r\npragma solidity ^0.8.17;\r\n\r\ninterface IAttackDetector {\r\n    function resetSuspiciousActivity(address _actor) external;\r\n}\r\n\r\ninterface IVulnerabilityPatches {\r\n    function applyPatch(uint256 patchId) external returns (bool);\r\n    function revertPatch(uint256 patchId) external returns (bool);\r\n}\r\n\r\ncontract SelfHealingManager {\r\n    address public owner;\r\n    address public attackDetector;\r\n    address public vulnerabilityPatches;\r\n    \r\n    // Address blacklisting\r\n    mapping(address => bool) public blacklistedAddresses;\r\n    mapping(address => uint256) public blacklistTimestamp;\r\n    uint256 public blacklistDuration = 1 days;\r\n    \r\n    // Healing states\r\n    enum HealingState { Inactive, Monitoring, Responding, Recovering }\r\n    HealingState public currentState = HealingState.Monitoring;\r\n    \r\n    // Attack response mapping\r\n    mapping(string => uint8) public attackResponseLevel;\r\n    mapping(string => uint256) public attackPatchId;\r\n    \r\n    // Events\r\n    event AttackHandled(address attacker, string attackType, uint8 responseLevel);\r\n    event BlacklistUpdated(address target, bool isBlacklisted);\r\n    event StateChanged(HealingState previousState, HealingState newState);\r\n    event PatchApplied(uint256 patchId, string attackType);\r\n    event PatchReverted(uint256 patchId);\r\n    \r\n    modifier onlyOwner() {\r\n        require(msg.sender == owner, \"Only owner can call this function\");\r\n        _;\r\n    }\r\n    \r\n    constructor() {\r\n        owner = msg.sender;\r\n        \r\n        // Initialize default attack response levels\r\n        attackResponseLevel[\"High Transaction Frequency\"] = 1;\r\n        attackResponseLevel[\"Excessive Gas Usage\"] = 2;\r\n        attackResponseLevel[\"Multiple Failed Transactions\"] = 1;\r\n        attackResponseLevel[\"Potential Reentrancy Attack\"] = 3;\r\n        attackResponseLevel[\"Potential DoS Attack\"] = 3;\r\n        attackResponseLevel[\"Potential DDoS Attack\"] = 3;\r\n        attackResponseLevel[\"Potential Double Spending\"] = 3;\r\n        attackResponseLevel[\"Potential Sybil Attack\"] = 3;\r\n        \r\n        // Initialize patch mapping\r\n        attackPatchId[\"Potential Reentrancy Attack\"] = 1; // Patch ID for reentrancy\r\n        attackPatchId[\"Potential DoS Attack\"] = 2; // Patch ID for DoS protection\r\n        attackPatchId[\"Potential DDoS Attack\"] = 4; // Patch ID for DDoS protection\r\n        attackPatchId[\"Potential Double Spending\"] = 5; // Patch ID for double spending protection\r\n        attackPatchId[\"Potential Sybil Attack\"] = 6; // Patch ID for Sybil protection\r\n    }\r\n    \r\n    function setAttackDetector(address _detector) external onlyOwner {\r\n        attackDetector = _detector;\r\n    }\r\n    \r\n    function setVulnerabilityPatches(address _patches) external onlyOwner {\r\n        vulnerabilityPatches = _patches;\r\n    }\r\n    \r\n    function updateAttackResponseLevel(string calldata _attackType, uint8 _level) external onlyOwner {\r\n        attackResponseLevel[_attackType] = _level;\r\n    }\r\n    \r\n    function updateAttackPatchMapping(string calldata _attackType, uint256 _patchId) external onlyOwner {\r\n        attackPatchId[_attackType] = _patchId;\r\n    }\r\n    \r\n    function setBlacklistDuration(uint256 _duration) external onlyOwner {\r\n        blacklistDuration = _duration;\r\n    }\r\n    \r\n    // Handle attack detection and trigger appropriate response\r\n    function handleAttackDetection(address _attacker, string memory _attackType) external {\r\n        require(msg.sender == attackDetector, \"Only attack detector can call this function\");\r\n        \r\n        changeState(HealingState.Responding);\r\n        \r\n        uint8 responseLevel = attackResponseLevel[_attackType];\r\n        emit AttackHandled(_attacker, _attackType, responseLevel);\r\n        \r\n        // Apply response based on level\r\n        if (responseLevel >= 1) {\r\n            // Level 1: Temporary blacklist\r\n            blacklistAddress(_attacker);\r\n        }\r\n        \r\n        if (responseLevel >= 2) {\r\n            // Level 2: Apply security patch\r\n            uint256 patchId = attackPatchId[_attackType];\r\n            if (patchId > 0 && vulnerabilityPatches != address(0)) {\r\n                applySecurityPatch(patchId, _attackType);\r\n            }\r\n        }\r\n        \r\n        if (responseLevel >= 3) {\r\n            // Level 3: Network alert and extended blacklist\r\n            blacklistAddress(_attacker);\r\n            blacklistTimestamp[_attacker] = block.timestamp + (blacklistDuration * 3); // Triple duration\r\n        }\r\n        \r\n        // Return to monitoring state\r\n        changeState(HealingState.Monitoring);\r\n    }\r\n    \r\n    // Blacklist an address temporarily\r\n    function blacklistAddress(address _target) internal {\r\n        blacklistedAddresses[_target] = true;\r\n        blacklistTimestamp[_target] = block.timestamp + blacklistDuration;\r\n        emit BlacklistUpdated(_target, true);\r\n    }\r\n    \r\n    // Check if an address is currently blacklisted\r\n    function isBlacklisted(address _target) public view returns (bool) {\r\n        if (!blacklistedAddresses[_target]) return false;\r\n        if (block.timestamp > blacklistTimestamp[_target]) return false;\r\n        return true;\r\n    }\r\n    \r\n    // Remove address from blacklist\r\n    function removeFromBlacklist(address _target) external onlyOwner {\r\n        blacklistedAddresses[_target] = false;\r\n        emit BlacklistUpdated(_target, false);\r\n    }\r\n    \r\n    // Apply security patch\r\n    function applySecurityPatch(uint256 _patchId, string memory _attackType) internal {\r\n        if (vulnerabilityPatches != address(0)) {\r\n            bool success = IVulnerabilityPatches(vulnerabilityPatches).applyPatch(_patchId);\r\n            if (success) {\r\n                emit PatchApplied(_patchId, _attackType);\r\n            }\r\n        }\r\n    }\r\n    \r\n    // Revert security patch\r\n    function revertSecurityPatch(uint256 _patchId) external onlyOwner {\r\n        if (vulnerabilityPatches != address(0)) {\r\n            bool success = IVulnerabilityPatches(vulnerabilityPatches).revertPatch(_patchId);\r\n            if (success) {\r\n                emit PatchReverted(_patchId);\r\n            }\r\n        }\r\n    }\r\n    \r\n    // Change the healing state\r\n    function changeState(HealingState _newState) internal {\r\n        if (currentState != _newState) {\r\n            emit StateChanged(currentState, _newState);\r\n            currentState = _newState;\r\n        }\r\n    }\r\n    \r\n    // Reset an attacker's suspicious activity counter\r\n    function resetAttackerActivity(address _attacker) external onlyOwner {\r\n        if (attackDetector != address(0)) {\r\n            IAttackDetector(attackDetector).resetSuspiciousActivity(_attacker);\r\n        }\r\n    }\r\n    \r\n    // Emergency function to manually trigger recovery mode\r\n    function triggerRecoveryMode() external onlyOwner {\r\n        changeState(HealingState.Recovering);\r\n        // Additional recovery logic can be implemented here\r\n    }\r\n    \r\n    // Exit recovery mode\r\n    function exitRecoveryMode() external onlyOwner {\r\n        changeState(HealingState.Monitoring);\r\n    }\r\n}",
  "sourcePath": "E:\\blockchain mppp\\Self-healing_blockchain\\contracts\\SelfHealingManager.sol",
  "compiler": {
    "name": "solc",
    "version": "0.8.17+commit.8df45f5f.Emscripten.clang"
  },
  "schemaVersion": "3.4.16",
  "updatedAt": "2025-05-13T11:07:59.475Z",
  "networkType": "ethereum",
  "devdoc": {
    "kind": "dev",
    "methods": {},
    "version": 1
  },
  "userdoc": {
    "kind": "user",
    "methods": {},
    "version": 1
  }
}